{
  "contractName": "TodoList",
  "abi": [
    {
      "constant": true,
      "inputs": [
        {
          "name": "",
          "type": "uint256"
        }
      ],
      "name": "tasks",
      "outputs": [
        {
          "name": "id",
          "type": "uint256"
        },
        {
          "name": "content",
          "type": "string"
        },
        {
          "name": "completed",
          "type": "bool"
        }
      ],
      "payable": false,
      "stateMutability": "view",
      "type": "function",
      "signature": "0x8d977672"
    },
    {
      "constant": true,
      "inputs": [],
      "name": "taskCount",
      "outputs": [
        {
          "name": "",
          "type": "uint256"
        }
      ],
      "payable": false,
      "stateMutability": "view",
      "type": "function",
      "signature": "0xb6cb58a5"
    },
    {
      "inputs": [],
      "payable": false,
      "stateMutability": "nonpayable",
      "type": "constructor",
      "signature": "constructor"
    },
    {
      "anonymous": false,
      "inputs": [
        {
          "indexed": false,
          "name": "id",
          "type": "uint256"
        },
        {
          "indexed": false,
          "name": "content",
          "type": "string"
        },
        {
          "indexed": false,
          "name": "completed",
          "type": "bool"
        }
      ],
      "name": "task_created",
      "type": "event",
      "signature": "0xfae34b7caeb28e4f8303543e7416a565deb540e011bc568b5a5de3fc4b739cfe"
    },
    {
      "constant": false,
      "inputs": [
        {
          "name": "_content",
          "type": "string"
        }
      ],
      "name": "createTasks",
      "outputs": [],
      "payable": false,
      "stateMutability": "nonpayable",
      "type": "function",
      "signature": "0xc45d2e00"
    }
  ],
  "bytecode": "0x60806040526000805534801561001457600080fd5b5060408051808201909152600e81527f54656d706f72617279205461736b000000000000000000000000000000000000602082015261005b90640100000000610060810204565b61021f565b60008054600190810180835560408051606081018252828152602080820187815282840187905293865284815291909420845181559151805192936100ad93908501929190910190610184565b5060408201518160020160006101000a81548160ff0219169083151502179055509050507ffae34b7caeb28e4f8303543e7416a565deb540e011bc568b5a5de3fc4b739cfe600054826000604051808481526020018060200183151515158152602001828103825284818151815260200191508051906020019080838360005b8381101561014557818101518382015260200161012d565b50505050905090810190601f1680156101725780820380516001836020036101000a031916815260200191505b5094505050505060405180910390a150565b828054600181600116156101000203166002900490600052602060002090601f016020900481019282601f106101c557805160ff19168380011785556101f2565b828001600101855582156101f2579182015b828111156101f25782518255916020019190600101906101d7565b506101fe929150610202565b5090565b61021c91905b808211156101fe5760008155600101610208565b90565b61048b8061022e6000396000f3fe6080604052600436106100565763ffffffff7c01000000000000000000000000000000000000000000000000000000006000350416638d977672811461005b578063b6cb58a51461010f578063c45d2e0014610136575b600080fd5b34801561006757600080fd5b506100856004803603602081101561007e57600080fd5b50356101eb565b604051808481526020018060200183151515158152602001828103825284818151815260200191508051906020019080838360005b838110156100d25781810151838201526020016100ba565b50505050905090810190601f1680156100ff5780820380516001836020036101000a031916815260200191505b5094505050505060405180910390f35b34801561011b57600080fd5b5061012461029a565b60408051918252519081900360200190f35b34801561014257600080fd5b506101e96004803603602081101561015957600080fd5b81019060208101813564010000000081111561017457600080fd5b82018360208201111561018657600080fd5b803590602001918460018302840111640100000000831117156101a857600080fd5b91908080601f0160208091040260200160405190810160405280939291908181526020018383808284376000920191909152509295506102a0945050505050565b005b600160208181526000928352604092839020805481840180548651600296821615610100026000190190911695909504601f810185900485028601850190965285855290949193929091908301828280156102875780601f1061025c57610100808354040283529160200191610287565b820191906000526020600020905b81548152906001019060200180831161026a57829003601f168201915b5050506002909301549192505060ff1683565b60005481565b60008054600190810180835560408051606081018252828152602080820187815282840187905293865284815291909420845181559151805192936102ed939085019291909101906103c4565b5060408201518160020160006101000a81548160ff0219169083151502179055509050507ffae34b7caeb28e4f8303543e7416a565deb540e011bc568b5a5de3fc4b739cfe600054826000604051808481526020018060200183151515158152602001828103825284818151815260200191508051906020019080838360005b8381101561038557818101518382015260200161036d565b50505050905090810190601f1680156103b25780820380516001836020036101000a031916815260200191505b5094505050505060405180910390a150565b828054600181600116156101000203166002900490600052602060002090601f016020900481019282601f1061040557805160ff1916838001178555610432565b82800160010185558215610432579182015b82811115610432578251825591602001919060010190610417565b5061043e929150610442565b5090565b61045c91905b8082111561043e5760008155600101610448565b9056fea165627a7a72305820cd5e1e0dd93eff4809b2fdf18ad18d4392a13abef5fcdd690fd6cf63c0f8dd8c0029",
  "source": "pragma solidity ^0.5.0;\r\n// version of solidity\r\n\r\ncontract TodoList{\r\n    uint public taskCount=0;\r\n\r\n    struct Task{\r\n        uint id;\r\n        string content;\r\n        bool completed;\r\n    }\r\n    event task_created(\r\n        uint id,\r\n        string content,\r\n        bool completed\r\n    );\r\n\r\n    mapping (uint=> Task) public tasks;\r\n\r\n    constructor() public{\r\n        createTasks(\"Temporary Task\");\r\n    }\r\n    // function to create new Tasks\r\n    function createTasks(string memory _content) public {\r\n        taskCount += 1;\r\n        tasks[taskCount] = Task(taskCount,_content,false);\r\n        emit task_created(taskCount,_content,false);\r\n    }\r\n\r\n}",
  "sourcePath": "C:/Users/harsh/Desktop/Blockchain/todo/contracts/TodoList.sol",
  "compiler": {
    "name": "solc",
    "version": "0.5.0+commit.1d4f565a.Emscripten.clang"
  },
  "schemaVersion": "3.0.1",
  "updatedAt": "2020-06-05T23:55:29.416Z",
  "devdoc": {
    "methods": {}
  },
  "userdoc": {
    "methods": {}
  }
}